{
  "address": "0x389acc6A9db28A28162B6081075Ce3d76a76AF08",
  "abi": [
    {
      "inputs": [
        {
          "internalType": "address",
          "name": "token_",
          "type": "address"
        }
      ],
      "stateMutability": "nonpayable",
      "type": "constructor"
    },
    {
      "inputs": [],
      "name": "ZamaProtocolUnsupported",
      "type": "error"
    },
    {
      "anonymous": false,
      "inputs": [
        {
          "indexed": true,
          "internalType": "address",
          "name": "newAdmin",
          "type": "address"
        }
      ],
      "name": "AdminTransferred",
      "type": "event"
    },
    {
      "anonymous": false,
      "inputs": [
        {
          "indexed": true,
          "internalType": "address",
          "name": "campaign",
          "type": "address"
        },
        {
          "indexed": true,
          "internalType": "address",
          "name": "creator",
          "type": "address"
        },
        {
          "indexed": true,
          "internalType": "address",
          "name": "beneficiary",
          "type": "address"
        },
        {
          "indexed": false,
          "internalType": "uint64",
          "name": "goal",
          "type": "uint64"
        },
        {
          "indexed": false,
          "internalType": "uint8",
          "name": "category",
          "type": "uint8"
        },
        {
          "indexed": false,
          "internalType": "string",
          "name": "ipfsHash",
          "type": "string"
        }
      ],
      "name": "CampaignCreated",
      "type": "event"
    },
    {
      "inputs": [],
      "name": "admin",
      "outputs": [
        {
          "internalType": "address",
          "name": "",
          "type": "address"
        }
      ],
      "stateMutability": "view",
      "type": "function"
    },
    {
      "inputs": [
        {
          "internalType": "uint256",
          "name": "",
          "type": "uint256"
        }
      ],
      "name": "campaigns",
      "outputs": [
        {
          "internalType": "address",
          "name": "",
          "type": "address"
        }
      ],
      "stateMutability": "view",
      "type": "function"
    },
    {
      "inputs": [],
      "name": "campaignsCount",
      "outputs": [
        {
          "internalType": "uint256",
          "name": "",
          "type": "uint256"
        }
      ],
      "stateMutability": "view",
      "type": "function"
    },
    {
      "inputs": [],
      "name": "confidentialProtocolId",
      "outputs": [
        {
          "internalType": "uint256",
          "name": "",
          "type": "uint256"
        }
      ],
      "stateMutability": "view",
      "type": "function"
    },
    {
      "inputs": [
        {
          "internalType": "uint64",
          "name": "goal",
          "type": "uint64"
        },
        {
          "internalType": "uint8",
          "name": "category",
          "type": "uint8"
        },
        {
          "internalType": "bytes32",
          "name": "recipientPubkey",
          "type": "bytes32"
        },
        {
          "internalType": "address",
          "name": "beneficiary",
          "type": "address"
        },
        {
          "internalType": "string",
          "name": "ipfsHash",
          "type": "string"
        }
      ],
      "name": "createCampaign",
      "outputs": [
        {
          "internalType": "address",
          "name": "campaignAddr",
          "type": "address"
        }
      ],
      "stateMutability": "nonpayable",
      "type": "function"
    },
    {
      "inputs": [
        {
          "internalType": "uint256",
          "name": "offset",
          "type": "uint256"
        },
        {
          "internalType": "uint256",
          "name": "limit",
          "type": "uint256"
        }
      ],
      "name": "getCampaigns",
      "outputs": [
        {
          "internalType": "address[]",
          "name": "page",
          "type": "address[]"
        }
      ],
      "stateMutability": "view",
      "type": "function"
    },
    {
      "inputs": [
        {
          "internalType": "address",
          "name": "",
          "type": "address"
        }
      ],
      "name": "isCampaign",
      "outputs": [
        {
          "internalType": "bool",
          "name": "",
          "type": "bool"
        }
      ],
      "stateMutability": "view",
      "type": "function"
    },
    {
      "inputs": [],
      "name": "token",
      "outputs": [
        {
          "internalType": "address",
          "name": "",
          "type": "address"
        }
      ],
      "stateMutability": "view",
      "type": "function"
    },
    {
      "inputs": [
        {
          "internalType": "address",
          "name": "newAdmin",
          "type": "address"
        }
      ],
      "name": "transferAdmin",
      "outputs": [],
      "stateMutability": "nonpayable",
      "type": "function"
    }
  ],
  "transactionHash": "0x4112b43197e8e602a4da42dae13fd2d00ff6ca83a60a24c0a53bcd787f0311f7",
  "args": [
    "0x95Ac720fc206B826d62f1e9AbE40D5605aa1078B"
  ],
  "numDeployments": 4,
  "solcInputHash": "abb791dd46bcc426c67f2ce99bd24fc9",
  "bytecode": "0x60a060405234801561000f575f5ffd5b50604051612dd4380380612dd483398101604081905261002e916102b3565b6100e2610039610104565b80517f9e7b61f58c47dc699ac88507c4f5bb9f121c03808c5676a8078fe583e464970080546001600160a01b03199081166001600160a01b039384161790915560208301517f9e7b61f58c47dc699ac88507c4f5bb9f121c03808c5676a8078fe583e46497018054831691841691909117905560408301517f9e7b61f58c47dc699ac88507c4f5bb9f121c03808c5676a8078fe583e46497028054909216921691909117905550565b6001600160a01b03166080525f80546001600160a01b031916331790556102e0565b604080516060810182525f80825260208201819052918101919091524660010361019d575060408051606080820183525f8083526020808401829052928401528251908101835273ca2e8f1f656cd25c01f05d0b243ab1ecd4a8ffb6815273d82385dada1ae3e969447f20a3164f6213100e75918101919091527377627828a55156b04ac0dc0eb30467f1a552bb039181019190915290565b4662aa36a70361021c575060408051606080820183525f8083526020808401829052928401528251908101835273f0ffdc93b7e186bc2f8cb3daa75d86d1930a433d81527392c920834ec8941d2c77d188936e1f7a6f49c1279181019190915273be0e383937d564d7ff0bc3b46c51f0bf8d5c311a9181019190915290565b46617a690361029a575060408051606080820183525f808352602080840182905292840152825190810183527350157cffd6bbfa2dece204a89ec419c23ef5755d815273e3a9105a3a932253a70f126eb1e3b589c643dd249181019190915273901f8942346f7ab3a01f6d7613119bca447bb0309181019190915290565b6040516373cac13b60e01b815260040160405180910390fd5b5f602082840312156102c3575f5ffd5b81516001600160a01b03811681146102d9575f5ffd5b9392505050565b608051612ad56102ff5f395f818161017301526104390152612ad55ff3fe608060405234801561000f575f5ffd5b5060043610610090575f3560e01c80638927b030116100635780638927b0301461010f578063b2b8b98514610117578063e2714e1b1461012a578063f851a4401461015c578063fc0c546a1461016e575f5ffd5b80630905156614610094578063141961bc146100bd57806344c89b65146100e857806375829def146100fa575b5f5ffd5b6100a76100a236600461058e565b610195565b6040516100b491906105ae565b60405180910390f35b6100d06100cb3660046105f9565b610293565b6040516001600160a01b0390911681526020016100b4565b6001545b6040519081526020016100b4565b61010d61010836600461062b565b6102bb565b005b6100ec61034c565b6100d061012536600461064b565b61035a565b61014c61013836600461062b565b60026020525f908152604090205460ff1681565b60405190151581526020016100b4565b5f546100d0906001600160a01b031681565b6100d07f000000000000000000000000000000000000000000000000000000000000000081565b6001546060908084106101b7575050604080515f81526020810190915261028d565b5f6101c28486610736565b9050818111156101cf5750805b6101d98582610749565b67ffffffffffffffff8111156101f1576101f161070e565b60405190808252806020026020018201604052801561021a578160200160208202803683370190505b509250845b81811015610289576001818154811061023a5761023a61075c565b5f918252602090912001546001600160a01b0316846102598884610749565b815181106102695761026961075c565b6001600160a01b039092166020928302919091019091015260010161021f565b5050505b92915050565b600181815481106102a2575f80fd5b5f918252602090912001546001600160a01b0316905081565b5f546001600160a01b031633146103055760405162461bcd60e51b81526020600482015260096024820152683737ba1030b236b4b760b91b60448201526064015b60405180910390fd5b5f80546001600160a01b0319166001600160a01b038316908117825560405190917fe22b4f506b7da9a528a95d7063a6cde8d2b6268773b1f7f65c00057531704a3d91a250565b5f61035561054d565b905090565b5f5f8767ffffffffffffffff16116103a75760405162461bcd60e51b815260206004820152601060248201526f0676f616c206d757374206265203e20360841b60448201526064016102fc565b60058660ff16106103ed5760405162461bcd60e51b815260206004820152601060248201526f696e76616c69642063617465676f727960801b60448201526064016102fc565b6001600160a01b0384166104365760405162461bcd60e51b815260206004820152601060248201526f7a65726f2062656e656669636961727960801b60448201526064016102fc565b5f7f00000000000000000000000000000000000000000000000000000000000000003385858b8b8b8b60405161046b90610581565b61047c989796959493929190610798565b604051809103905ff080158015610495573d5f5f3e3d5ffd5b506001805480820182557fb10e2d527612073b26eecdfd717e6a320cf44b4afac2b0732d9fcbe2b7fa0cf60180546001600160a01b0319166001600160a01b038481169182179092555f8181526002602052604090819020805460ff191690941790935591519294508493508716913391907ffc5b2f9e1efd64e37680c4910f4dd040832ae58d03f3a87d1f8e9b04fd0b412c9061053a908d908d908b908b90610801565b60405180910390a4509695505050505050565b5f4660010361055c5750600190565b4662aa36a70361056d575061271190565b46617a690361057c57505f1990565b505f90565b6122688061083883390190565b5f5f6040838503121561059f575f5ffd5b50508035926020909101359150565b602080825282518282018190525f918401906040840190835b818110156105ee5783516001600160a01b03168352602093840193909201916001016105c7565b509095945050505050565b5f60208284031215610609575f5ffd5b5035919050565b80356001600160a01b0381168114610626575f5ffd5b919050565b5f6020828403121561063b575f5ffd5b61064482610610565b9392505050565b5f5f5f5f5f5f60a08789031215610660575f5ffd5b863567ffffffffffffffff81168114610677575f5ffd5b9550602087013560ff8116811461068c575f5ffd5b9450604087013593506106a160608801610610565b9250608087013567ffffffffffffffff8111156106bc575f5ffd5b87015f80601f83018b136106ce575f5ffd5b50813567ffffffffffffffff8111156106e5575f5ffd5b6020830191508a60208285010111156106fc575f5ffd5b979a9699509497509295939492505050565b634e487b7160e01b5f52604160045260245ffd5b634e487b7160e01b5f52601160045260245ffd5b8082018082111561028d5761028d610722565b8181038181111561028d5761028d610722565b634e487b7160e01b5f52603260045260245ffd5b81835281816020850137505f828201602090810191909152601f909101601f19169091010190565b6001600160a01b0389811682528816602082015260e0604082018190525f906107c4908301888a610770565b67ffffffffffffffff9690961660608301525060ff93909316608084015260a08301919091526001600160a01b031660c090910152949350505050565b67ffffffffffffffff8516815260ff84166020820152606060408201525f61082d606083018486610770565b969550505050505056fe610140604052348015610010575f5ffd5b5060405161226838038061226883398101604081905261002f9161057e565b6100bd61003a61019b565b80515f5160206122485f395f51905f5280546001600160a01b03199081166001600160a01b039384161790915560208301515f5160206122285f395f51905f528054831691841691909117905560408301517f9e7b61f58c47dc699ac88507c4f5bb9f121c03808c5676a8078fe583e46497028054909216921691909117905550565b6001600160a01b03811661010a5760405162461bcd60e51b815260206004820152601060248201526f7a65726f2062656e656669636961727960801b604482015260640160405180910390fd5b6001600160a01b03808816608052861660a0525f610128868261070e565b506001600160401b0384811660e05260ff8416610100526101208390526001600160a01b03821660c052600380546001600160401b031916429092169190911790556101735f61034a565b600181905561018190610365565b5060015461018e90610385565b5050505050505050610865565b604080516060810182525f808252602082018190529181019190915246600103610234575060408051606080820183525f8083526020808401829052928401528251908101835273ca2e8f1f656cd25c01f05d0b243ab1ecd4a8ffb6815273d82385dada1ae3e969447f20a3164f6213100e75918101919091527377627828a55156b04ac0dc0eb30467f1a552bb039181019190915290565b4662aa36a7036102b3575060408051606080820183525f8083526020808401829052928401528251908101835273f0ffdc93b7e186bc2f8cb3daa75d86d1930a433d81527392c920834ec8941d2c77d188936e1f7a6f49c1279181019190915273be0e383937d564d7ff0bc3b46c51f0bf8d5c311a9181019190915290565b46617a6903610331575060408051606080820183525f808352602080840182905292840152825190810183527350157cffd6bbfa2dece204a89ec419c23ef5755d815273e3a9105a3a932253a70f126eb1e3b589c643dd249181019190915273901f8942346f7ab3a01f6d7613119bca447bb0309181019190915290565b6040516373cac13b60e01b815260040160405180910390fd5b5f61035f6001600160401b03831660056103a0565b92915050565b5f81610377576103745f61034a565b91505b6103818230610437565b5090565b5f81610397576103945f61034a565b91505b610381826104ab565b5f5160206122285f395f51905f5254604051639cd07acb60e01b81525f915f5160206122485f395f51905f52916001600160a01b0390911690639cd07acb906103ef90879087906004016107c8565b6020604051808303815f875af115801561040b573d5f5f3e3d5ffd5b505050506040513d601f19601f8201168201806040525081019061042f91906107f8565b949350505050565b5f5160206122485f395f51905f528054604051635ca4b5b160e11b8152600481018590526001600160a01b0384811660248301529091169063b9496b62906044015b5f604051808303815f87803b158015610490575f5ffd5b505af11580156104a2573d5f5f3e3d5ffd5b50505050505050565b6040805160018082528183019092525f5160206122485f395f51905f52915f91906020808301908036833701905050905082815f815181106104ef576104ef61080f565b60209081029190910101528154604051637d6e912360e11b81526001600160a01b039091169063fadd224690610479908490600401610823565b80516001600160a01b038116811461053f575f5ffd5b919050565b634e487b7160e01b5f52604160045260245ffd5b80516001600160401b038116811461053f575f5ffd5b805160ff8116811461053f575f5ffd5b5f5f5f5f5f5f5f60e0888a031215610594575f5ffd5b61059d88610529565b96506105ab60208901610529565b60408901519096506001600160401b038111156105c6575f5ffd5b8801601f81018a136105d6575f5ffd5b80516001600160401b038111156105ef576105ef610544565b604051601f8201601f19908116603f011681016001600160401b038111828210171561061d5761061d610544565b6040528181528282016020018c1015610634575f5ffd5b8160208401602083015e5f6020838301015280975050505061065860608901610558565b93506106666080890161056e565b60a0890151909350915061067c60c08901610529565b905092959891949750929550565b600181811c9082168061069e57607f821691505b6020821081036106bc57634e487b7160e01b5f52602260045260245ffd5b50919050565b601f82111561070957805f5260205f20601f840160051c810160208510156106e75750805b601f840160051c820191505b81811015610706575f81556001016106f3565b50505b505050565b81516001600160401b0381111561072757610727610544565b61073b81610735845461068a565b846106c2565b6020601f82116001811461076d575f83156107565750848201515b5f19600385901b1c1916600184901b178455610706565b5f84815260208120601f198516915b8281101561079c578785015182556020948501946001909201910161077c565b50848210156107b957868401515f19600387901b60f8161c191681555b50505050600190811b01905550565b82815260408101605483106107eb57634e487b7160e01b5f52602160045260245ffd5b8260208301529392505050565b5f60208284031215610808575f5ffd5b5051919050565b634e487b7160e01b5f52603260045260245ffd5b602080825282518282018190525f918401906040840190835b8181101561085a57835183526020938401939092019160010161083c565b509095945050505050565b60805160a05160c05160e05161010051610120516119446108e45f395f6102b301525f61031d01525f81816101f0015261053501525f818161019f015261048a01525f818161014601528181610396015261075f01525f81816103690152818161057e015281816105bf01528181610911015261095801526119445ff3fe608060405234801561000f575f5ffd5b506004361061013d575f3560e01c80638e27943c116100b4578063c623674f11610079578063c623674f146102f5578063cf09e0d0146102fd578063ee687c7514610310578063ef430aa614610318578063f4ec842314610351578063fc0c546a14610364575f5ffd5b80638e27943c146102835780639ef27b001461028c5780639f310602146102a6578063ad0272c0146102ae578063b4c2f727146102d5575f5ffd5b8063401938831161010557806340193883146101eb57806343d726d61461022a5780634efa631714610232578063597e1fb5146102455780636c7d604f146102695780638927b0301461027b575f5ffd5b806302d05d3f1461014157806321d290381461018557806338af3eed1461019a5780633ccfd60b146101c15780633e97b43f146101c9575b5f5ffd5b6101687f000000000000000000000000000000000000000000000000000000000000000081565b6040516001600160a01b0390911681526020015b60405180910390f35b6101986101933660046113d5565b61038b565b005b6101687f000000000000000000000000000000000000000000000000000000000000000081565b61019861047f565b6101dc6101d7366004611413565b610687565b60405161017c93929190611458565b6102127f000000000000000000000000000000000000000000000000000000000000000081565b6040516001600160401b03909116815260200161017c565b610198610754565b610198610240366004611494565b61087d565b60035461025990600160401b900460ff1681565b604051901515815260200161017c565b6005545b60405190815260200161017c565b61026d610a72565b61026d60025481565b60035461021290600160481b90046001600160401b031681565b60015461026d565b61026d7f000000000000000000000000000000000000000000000000000000000000000081565b6102e86102e3366004611413565b610a80565b60405161017c919061150b565b6102e8610b26565b600354610212906001600160401b031681565b60045461026d565b61033f7f000000000000000000000000000000000000000000000000000000000000000081565b60405160ff909116815260200161017c565b61019861035f3660046113d5565b610b32565b6101687f000000000000000000000000000000000000000000000000000000000000000081565b336001600160a01b037f000000000000000000000000000000000000000000000000000000000000000016146103f65760405162461bcd60e51b815260206004820152600b60248201526a3737ba1031b932b0ba37b960a91b60448201526064015b60405180910390fd5b600480546001810182555f919091527f8a35acfbc15ff81a39ae7d344fd709f28e8600b4aa8c65c6b64bfe7fe36bd19b016104328284836115b5565b5060045461044290600190611682565b7f65dffc72fd22f03f2205e809cbc4451465d725814397b8b23a14d3fdd427f29c83836040516104739291906116bd565b60405180910390a25050565b336001600160a01b037f000000000000000000000000000000000000000000000000000000000000000016146104e95760405162461bcd60e51b815260206004820152600f60248201526e6e6f742062656e656669636961727960881b60448201526064016103ed565b5f600254116105295760405162461bcd60e51b815260206004820152600c60248201526b6e6f20646f6e6174696f6e7360a01b60448201526064016103ed565b5f61055e6001546105597f0000000000000000000000000000000000000000000000000000000000000000610c3d565b610c58565b90505f610576826001546105715f610c3d565b610c8d565b90506105a2817f0000000000000000000000000000000000000000000000000000000000000000610cd4565b50604051632df5f6bf60e11b8152336004820152602481018290527f00000000000000000000000000000000000000000000000000000000000000006001600160a01b031690635bebed7e906044016020604051808303815f875af115801561060d573d5f5f3e3d5ffd5b505050506040513d601f19601f8201168201806040525081019061063191906116d0565b5061063e60015482610cf7565b600181905561064c90610d25565b50610658600154610d45565b5060405133907ff45a04d08a70caa7eb4b747571305559ad9fdf4a093afd41506b35c8a306fa94905f90a25050565b60058181548110610696575f80fd5b5f918252602090912060039091020180546001820180546001600160a01b039092169350906106c490611531565b80601f01602080910402602001604051908101604052809291908181526020018280546106f090611531565b801561073b5780601f106107125761010080835404028352916020019161073b565b820191905f5260205f20905b81548152906001019060200180831161071e57829003601f168201915b505050600290930154919250506001600160401b031683565b336001600160a01b037f000000000000000000000000000000000000000000000000000000000000000016146107ba5760405162461bcd60e51b815260206004820152600b60248201526a3737ba1031b932b0ba37b960a91b60448201526064016103ed565b600354600160401b900460ff16156108055760405162461bcd60e51b815260206004820152600e60248201526d185b1c9958591e4818db1bdcd95960921b60448201526064016103ed565b600380546001600160401b03428116600160481b90810270ffffffffffffffffff00000000000000001990931692909217600160401b179283905560405191909204909116815233907f65c3fe9007e7fc4fb5400092c71086aa52fd9c09612aba392ce2ad824c6a1ea79060200160405180910390a2565b600354600160401b900460ff16156108c95760405162461bcd60e51b815260206004820152600f60248201526e18d85b5c185a59db8818db1bdcd959608a1b60448201526064016103ed565b5f6109098686868080601f0160208091040260200160405190810160405280939291908181526020018383808284375f92019190915250610d6092505050565b9050610935817f0000000000000000000000000000000000000000000000000000000000000000610cd4565b5060405163eb3155b560e01b8152336004820152306024820152604481018290527f00000000000000000000000000000000000000000000000000000000000000006001600160a01b03169063eb3155b5906064016020604051808303815f875af11580156109a6573d5f5f3e3d5ffd5b505050506040513d601f19601f820116820180604052508101906109ca91906116d0565b506109d760015482610dc6565b60018190556109e590610d25565b506109f1600154610d45565b50600254610a008160016116e7565b60025560405133907f9f44696f0009b97224e5b2f00e472e0085e3a96e29dd6751e6e24fa9bbaaa73390610a39908490889088906116fa565b60405180910390a26040517fa59a16c55f1d2665957312097d4e1290a237251bc4d9f0c6a1a66aad77dc2d36905f90a150505050505050565b5f610a7b610df4565b905090565b60048181548110610a8f575f80fd5b905f5260205f20015f915090508054610aa790611531565b80601f0160208091040260200160405190810160405280929190818152602001828054610ad390611531565b8015610b1e5780601f10610af557610100808354040283529160200191610b1e565b820191905f5260205f20905b815481529060010190602001808311610b0157829003601f168201915b505050505081565b5f8054610aa790611531565b60056040518060600160405280336001600160a01b0316815260200184848080601f0160208091040260200160405190810160405280939291908181526020018383808284375f920182905250938552505050426001600160401b031660209283015283546001808201865594825290829020835160039092020180546001600160a01b0319166001600160a01b03909216919091178155908201519192909190820190610be09082611713565b50604091820151600291909101805467ffffffffffffffff19166001600160401b039092169190911790555133907fc8e10dacbd017321d3eaff2de6cfa65931f952cbe393ea11e41c6bc3ae9e10c39061047390859085906116bd565b5f610c52826001600160401b03166005610e28565b92915050565b5f82610c6a57610c675f610c3d565b92505b81610c7b57610c785f610c3d565b91505b610c8683835f610eb7565b9392505050565b5f83610c9f57610c9c5f610f64565b93505b82610cb057610cad5f610c3d565b92505b81610cc157610cbe5f610c3d565b91505b610ccc848484610f7f565b949350505050565b5f82610ce657610ce35f610c3d565b92505b610cf08383611015565b5090919050565b5f82610d0957610d065f610c3d565b92505b81610d1a57610d175f610c3d565b91505b610c8683835f611089565b5f81610d3757610d345f610c3d565b91505b610d4182306110ec565b5090565b5f81610d5757610d545f610c3d565b91505b610d4182611132565b5f81515f14610d7c57610d75838360056111b0565b9050610c52565b825f819003610d9657610d8e5f610c3d565b915050610c52565b610da081336112aa565b610d7557604051630276b5d960e01b8152600481018290523360248201526044016103ed565b5f82610dd857610dd55f610c3d565b92505b81610de957610de65f610c3d565b91505b610c8683835f61132e565b5f46600103610e035750600190565b4662aa36a703610e14575061271190565b46617a6903610e2357505f1990565b505f90565b5f5160206118cf5f395f51905f5254604051639cd07acb60e01b81525f915f5160206118ef5f395f51905f52916001600160a01b0390911690639cd07acb90610e7790879087906004016117ed565b6020604051808303815f875af1158015610e93573d5f5f3e3d5ffd5b505050506040513d601f19601f82011682018060405250810190610ccc91906116d0565b5f5f8215610eca5750600160f81b610ecd565b505f5b5f5160206118cf5f395f51905f5254604051631391547f60e01b81525f5160206118ef5f395f51905f52916001600160a01b031690631391547f90610f1a90899089908790600401611801565b6020604051808303815f875af1158015610f36573d5f5f3e3d5ffd5b505050506040513d601f19601f82011682018060405250810190610f5a91906116d0565b9695505050505050565b5f610c5282610f73575f610f76565b60015b60ff165f610e28565b5f805f5160206118ef5f395f51905f526001810154604051637702dcff60e01b81526004810188905260248101879052604481018690529192506001600160a01b031690637702dcff906064016020604051808303815f875af1158015610fe8573d5f5f3e3d5ffd5b505050506040513d601f19601f8201168201806040525081019061100c91906116d0565b95945050505050565b5f5160206118ef5f395f51905f528054604051630f8e573b60e21b8152600481018590526001600160a01b03848116602483015290911690633e395cec906044015b5f604051808303815f87803b15801561106e575f5ffd5b505af1158015611080573d5f5f3e3d5ffd5b50505050505050565b5f5f821561109c5750600160f81b61109f565b505f5b5f5160206118cf5f395f51905f52546040516303056db360e31b81525f5160206118ef5f395f51905f52916001600160a01b03169063182b6d9890610f1a90899089908790600401611801565b5f5160206118ef5f395f51905f528054604051635ca4b5b160e11b8152600481018590526001600160a01b0384811660248301529091169063b9496b6290604401611057565b6040805160018082528183019092525f5160206118ef5f395f51905f52915f91906020808301908036833701905050905082815f8151811061117657611176611821565b60209081029190910101528154604051637d6e912360e11b81526001600160a01b039091169063fadd224690611057908490600401611835565b5f5160206118cf5f395f51905f525460405163045fc19560e11b81525f915f5160206118ef5f395f51905f52916001600160a01b03909116906308bf832a90611203908890339089908990600401611877565b6020604051808303815f875af115801561121f573d5f5f3e3d5ffd5b505050506040513d601f19601f8201168201806040525081019061124391906116d0565b8154604051630f8e573b60e21b8152600481018390523360248201529193506001600160a01b031690633e395cec906044015f604051808303815f87803b15801561128c575f5ffd5b505af115801561129e573d5f5f3e3d5ffd5b50505050509392505050565b5f805f5160206118ef5f395f51905f5280546040516382027b6d60e01b8152600481018790526001600160a01b0386811660248301529293509116906382027b6d90604401602060405180830381865afa15801561130a573d5f5f3e3d5ffd5b505050506040513d601f19601f82011682018060405250810190610ccc91906118af565b5f5f82156113415750600160f81b611344565b505f5b5f5160206118cf5f395f51905f525460405163022f65e760e31b81525f5160206118ef5f395f51905f52916001600160a01b03169063117b2f3890610f1a90899089908790600401611801565b5f5f83601f8401126113a1575f5ffd5b5081356001600160401b038111156113b7575f5ffd5b6020830191508360208285010111156113ce575f5ffd5b9250929050565b5f5f602083850312156113e6575f5ffd5b82356001600160401b038111156113fb575f5ffd5b61140785828601611391565b90969095509350505050565b5f60208284031215611423575f5ffd5b5035919050565b5f81518084528060208401602086015e5f602082860101526020601f19601f83011685010191505092915050565b6001600160a01b03841681526060602082018190525f9061147b9083018561142a565b90506001600160401b0383166040830152949350505050565b5f5f5f5f5f606086880312156114a8575f5ffd5b8535945060208601356001600160401b038111156114c4575f5ffd5b6114d088828901611391565b90955093505060408601356001600160401b038111156114ee575f5ffd5b6114fa88828901611391565b969995985093965092949392505050565b602081525f610c86602083018461142a565b634e487b7160e01b5f52604160045260245ffd5b600181811c9082168061154557607f821691505b60208210810361156357634e487b7160e01b5f52602260045260245ffd5b50919050565b601f8211156115b057805f5260205f20601f840160051c8101602085101561158e5750805b601f840160051c820191505b818110156115ad575f815560010161159a565b50505b505050565b6001600160401b038311156115cc576115cc61151d565b6115e0836115da8354611531565b83611569565b5f601f841160018114611611575f85156115fa5750838201355b5f19600387901b1c1916600186901b1783556115ad565b5f83815260208120601f198716915b828110156116405786850135825560209485019460019092019101611620565b508682101561165c575f1960f88860031b161c19848701351681555b505060018560011b0183555050505050565b634e487b7160e01b5f52601160045260245ffd5b81810381811115610c5257610c5261166e565b81835281816020850137505f828201602090810191909152601f909101601f19169091010190565b602081525f610ccc602083018486611695565b5f602082840312156116e0575f5ffd5b5051919050565b80820180821115610c5257610c5261166e565b838152604060208201525f61100c604083018486611695565b81516001600160401b0381111561172c5761172c61151d565b6117408161173a8454611531565b84611569565b6020601f821160018114611772575f831561175b5750848201515b5f19600385901b1c1916600184901b1784556115ad565b5f84815260208120601f198516915b828110156117a15787850151825560209485019460019092019101611781565b50848210156117be57868401515f19600387901b60f8161c191681555b50505050600190811b01905550565b605481106117e957634e487b7160e01b5f52602160045260245ffd5b9052565b82815260408101610c8660208301846117cd565b92835260208301919091526001600160f81b031916604082015260600190565b634e487b7160e01b5f52603260045260245ffd5b602080825282518282018190525f918401906040840190835b8181101561186c57835183526020938401939092019160010161184e565b509095945050505050565b8481526001600160a01b03841660208201526080604082018190525f906118a09083018561142a565b905061100c60608301846117cd565b5f602082840312156118bf575f5ffd5b81518015158114610c86575f5ffdfe9e7b61f58c47dc699ac88507c4f5bb9f121c03808c5676a8078fe583e46497019e7b61f58c47dc699ac88507c4f5bb9f121c03808c5676a8078fe583e4649700a2646970667358221220c107900fd89848546fa797a31f1c738bea6e82e8741d0e3803729c65efb9e25364736f6c634300081b00339e7b61f58c47dc699ac88507c4f5bb9f121c03808c5676a8078fe583e46497019e7b61f58c47dc699ac88507c4f5bb9f121c03808c5676a8078fe583e4649700a2646970667358221220c1d7115e9f3eed924777ad86977a0c5783b602fb4213a5fe4eec73895b732fca64736f6c634300081b0033",
  "devdoc": {
    "kind": "dev",
    "methods": {},
    "version": 1
  },
  "userdoc": {
    "errors": {
      "ZamaProtocolUnsupported()": [
        {
          "notice": "Returned if the Zama protocol is not supported on the current chain"
        }
      ]
    },
    "kind": "user",
    "methods": {},
    "notice": "Deploys Campaign contracts and tracks them. Goals are denominated in the token's base units (cUSDC has 6 decimals, so 100 USD = 100_000_000 base).",
    "version": 1
  },
  "storageLayout": {
    "storage": [
      {
        "astId": 44377,
        "contract": "contracts/CampaignFactory.sol:CampaignFactory",
        "label": "admin",
        "offset": 0,
        "slot": "0",
        "type": "t_address"
      },
      {
        "astId": 44380,
        "contract": "contracts/CampaignFactory.sol:CampaignFactory",
        "label": "campaigns",
        "offset": 0,
        "slot": "1",
        "type": "t_array(t_address)dyn_storage"
      },
      {
        "astId": 44384,
        "contract": "contracts/CampaignFactory.sol:CampaignFactory",
        "label": "isCampaign",
        "offset": 0,
        "slot": "2",
        "type": "t_mapping(t_address,t_bool)"
      }
    ],
    "types": {
      "t_address": {
        "encoding": "inplace",
        "label": "address",
        "numberOfBytes": "20"
      },
      "t_array(t_address)dyn_storage": {
        "base": "t_address",
        "encoding": "dynamic_array",
        "label": "address[]",
        "numberOfBytes": "32"
      },
      "t_bool": {
        "encoding": "inplace",
        "label": "bool",
        "numberOfBytes": "1"
      },
      "t_mapping(t_address,t_bool)": {
        "encoding": "mapping",
        "key": "t_address",
        "label": "mapping(address => bool)",
        "numberOfBytes": "32",
        "value": "t_bool"
      }
    }
  }
}